:0400000007EF00F016
:0A0008007C8216ED08F080EF14F082
:10100000003738392F3435362A3132332D23303DED
:101010002B53494D504C452043414C43554C415472
:0B1020004F523A0025640025690000D3
:10102C000600F2A81CEF08F01EEF08F027EF08F0FE
:10103C00F2A223EF08F025EF08F027EF08F0A6EC5A
:10104C0016F0F0A62CEF08F02EEF08F037EF08F0B2
:10105C00F0A033EF08F035EF08F037EF08F0A4EC10
:10106C0016F0F0A83CEF08F03EEF08F047EF08F060
:10107C00F0A243EF08F045EF08F047EF08F0A2ECC0
:10108C0016F0F2A64CEF08F04EEF08F069EF08F0FE
:10109C00F2A053EF08F055EF08F069EF08F081A8C3
:1010AC005AEF08F05CEF08F069EF08F07804D8A468
:1010BC0062EF08F064EF08F069EF08F0000E786E4C
:1010CC00000E72EC16F0F2A66EEF08F070EF08F05E
:1010DC008BEF08F0F2A075EF08F077EF08F08BEFCC
:1010EC0008F081B87CEF08F07EEF08F08BEF08F089
:1010FC007850D8A484EF08F086EF08F08BEF08F056
:10110C00010E786E010E72EC16F0F2A690EF08F05C
:10111C0092EF08F0ADEF08F0F2A097EF08F099EF1E
:10112C0008F0ADEF08F081AA9EEF08F0A0EF08F0F0
:10113C00ADEF08F07704D8A4A6EF08F0A8EF08F0FC
:10114C00ADEF08F0000E776E000E65EC16F0F2A60F
:10115C00B2EF08F0B4EF08F0CFEF08F0F2A0B9EF5F
:10116C0008F0BBEF08F0CFEF08F081BAC0EF08F041
:10117C00C2EF08F0CFEF08F07750D8A4C8EF08F012
:10118C00CAEF08F0CFEF08F0010E776E010E65EC98
:10119C0016F0F2A6D4EF08F0D6EF08F0F1EF08F055
:1011AC00F2A0DBEF08F0DDEF08F0F1EF08F081AC16
:1011BC00E2EF08F0E4EF08F0F1EF08F07604D8A4C1
:1011CC00EAEF08F0ECEF08F0F1EF08F0000E766EA5
:1011DC00000E58EC16F0F2A6F6EF08F0F8EF08F057
:1011EC0013EF09F0F2A0FDEF08F0FFEF08F013EF9A
:1011FC0009F081BC04EF09F006EF09F013EF09F0D8
:10120C007650D8A40CEF09F00EEF09F013EF09F0AB
:10121C00010E766E010E58EC16F0F2A618EF09F0DE
:10122C001AEF09F035EF09F0F2A01FEF09F021EFEA
:10123C0009F035EF09F081AE26EF09F028EF09F03F
:10124C0035EF09F07504D8A42EEF09F030EF09F052
:10125C0035EF09F0000E756E000E4BEC16F0F2A691
:10126C003AEF09F03CEF09F057EF09F0F2A041EF2B
:10127C0009F043EF09F057EF09F081BE48EF09F090
:10128C004AEF09F057EF09F07550D8A450EF09F068
:10129C0052EF09F057EF09F0010E756E010E4BEC91
:1012AC0016F09DAC5CEF09F05EEF09F067EF09F00A
:1012BC009EAC63EF09F065EF09F067EF09F0AEEC57
:1012CC0016F0F2AA6CEF09F06EEF09F077EF09F067
:1012DC00F2A473EF09F075EF09F077EF09F08BECDE
:1012EC0016F09DA07CEF09F07EEF09F087EF09F076
:1012FC009EA083EF09F085EF09F087EF09F085ECEC
:10130C0016F09DA28CEF09F08EEF09F097EF09F023
:10131C009EA293EF09F095EF09F097EF09F097EC87
:10132C0016F0A0A29CEF09F09EEF09F0A7EF09F0D0
:10133C00A1A2A3EF09F0A5EF09F0A7EF09F07FEC4C
:10134C0016F09DA8ACEF09F0AEEF09F0B7EF09F07D
:10135C009EA8B3EF09F0B5EF09F0B7EF09F0A8ECD0
:10136C0016F09DAABCEF09F0BEEF09F0C7EF09F02B
:10137C009EAAC3EF09F0C5EF09F0C7EF09F0B2EC74
:10138C0016F09DA6CCEF09F0CEEF09F0D7EF09F0DF
:10139C009EA6D3EF09F0D5EF09F0D7EF09F09EEC3C
:1013AC0016F0A0A6DCEF09F0DEEF09F0E7EF09F08C
:1013BC00A1A6E3EF09F0E5EF09F0E7EF09F0A0ECE7
:1013CC0016F09DA6ECEF09F0EEEF09F0F7EF09F03F
:1013DC009EA6F3EF09F0F5EF09F0F7EF09F0B1EC89
:1013EC0016F09DA4FCEF09F0FEEF09F007EF0AF0F0
:1013FC009EA403EF0AF005EF0AF007EF0AF0ACEC3D
:10140C0016F0A0A00CEF0AF00EEF0AF017EF0AF09E
:10141C00A1A013EF0AF015EF0AF017EF0AF0AAECEF
:10142C0016F07C921100000E2A6E000E2A6E2A50C5
:10143C000F24D96E000E1020DA6E300EDF5E2A50AB
:10144C001124D96E000E1220DA6E300EDF5E2A2ABD
:10145C00030E2A6434EF0AF036EF0AF01DEF0AF09F
:10146C0020EE03F00F50D9261050DA22DF501A6EFE
:10147C000FC0D9FF10C0DAFFDF501B6E1B50026E7D
:10148C00036A030E056EE80E046E2BEC16F020EECC
:10149C0002F00F50D9261050DA22DF501C6E1C506F
:1014AC000A0DF3CF1DF0F4CF1EF020EE01F00F501B
:1014BC00D9261050DA22DF501F6E1F50640DF3CF67
:1014CC0020F0F4CF21F01D502024226E1E5021203C
:1014DC00236E02502224246E03502320256E1A50B2
:1014EC002424266E000E2520276E286A27BE280687
:1014FC002850296E13C0D9FF14C0DAFF26C0DEFFB6
:10150C0027C0DEFF28C0DEFF29C0DEFF20EE03F07F
:10151C001150D9261250DA22DF501A6E11C0D9FFA1
:10152C0012C0DAFFDF501B6E1B50026E036A030EF3
:10153C00056EE80E046E2BEC16F020EE02F0115046
:10154C00D9261250DA22DF501C6E1C500A0DF3CF34
:10155C001DF0F4CF1EF020EE01F01150D9261250E0
:10156C00DA22DF501F6E1F50640DF3CF20F0F4CF42
:10157C0021F01D502024226E1E502120236E02507B
:10158C002224246E03502320256E1A502424266E08
:10159C00000E2520276E286A27BE28062850296EA3
:1015AC0015C0D9FF16C0DAFF26C0DEFF27C0DEFF4C
:1015BC0028C0DEFF29C0DEFF98EF0BF015C0D9FF65
:1015CC0016C0DAFFDECF1AF0DECF1BF0DECF1CF038
:1015DC00DECF1DF013C0D9FF14C0DAFFDECF1EF032
:1015EC00DECF1FF0DECF20F0DECF21F01A501E240C
:1015FC00226E1B501F20236E1C502020246E1D5069
:10160C002120256E18C0D9FF19C0DAFF22C0DEFFD9
:10161C0023C0DEFF24C0DEFF25C0DEFFB5EF0BF0DC
:10162C0015C0D9FF16C0DAFFDECF1AF0DECF1BF0E3
:10163C00DECF1CF0DECF1DF013C0D9FF14C0DAFFD3
:10164C00DECF1EF0DECF1FF0DECF20F0DECF21F09C
:10165C001A501E5C226E1B501F58236E1C502058B3
:10166C00246E1D502158256E18C0D9FF19C0DAFF01
:10167C0022C0DEFF23C0DEFF24C0DEFF25C0DEFF5C
:10168C00B5EF0BF013C0D9FF14C0DAFFDECF02F0B8
:10169C00DECF03F0DECF04F0DECF05F015C0D9FFAE
:1016AC0016C0DAFFDECF06F0DECF07F0DECF08F093
:1016BC00DECF09F0EDEC14F018C0D9FF19C0DAFF39
:1016CC0002C0DEFF03C0DEFF04C0DEFF05C0DEFF8C
:1016DC00B5EF0BF013C0D9FF14C0DAFFDECF02F068
:1016EC00DECF03F0DECF04F0DECF05F015C0D9FF5E
:1016FC0016C0DAFFDECF06F0DECF07F0DECF08F043
:10170C00DECF09F0DCEC12F018C0D9FF19C0DAFFFB
:10171C0002C0DEFF03C0DEFF04C0DEFF05C0DEFF3B
:10172C00B5EF0BF017501A6E1B6A1B50000AD8B499
:10173C00A2EF0BF0B5EF0BF01A502A0AD8B448EF11
:10174C000BF0010AD8B4E4EF0AF0060AD8B416EF8D
:10175C000BF0020AD8B470EF0BF0B5EF0BF01200DF
:10176C009BEC16F0ED0E186E000E196E110E1A6E23
:10177C00100E1B6EBEEC13F00001FF6F000E7B6EA3
:10178C00000E7A6E000E796EF70E0C6E000E0D6E5A
:10179C007B0E0E6E000E0F6E7EEC10F00001FF6FD4
:1017AC00020E576E040E566EBA0EE82EFED7562E4B
:1017BC00FCD7572EFAD700D07B50D8B4E8EF0BF0FB
:1017CC00EAEF0BF0CAEF0BF0230E7B18D8A4F1EF65
:1017DC000BF0F3EF0BF033EF0CF0ED0E0F6E000E81
:1017EC00106E010E116E76EC13F00001FF6F020EFD
:1017FC00576E040E566EBA0EE82EFED7562EFCD738
:10180C00572EFAD700D0ED0E186E000E196E110E71
:10181C001A6E100E1B6EBEEC13F00001FF6F000E63
:10182C007A6E000E0101226FCB0E2225D96EDA6A78
:10183C00000EDA22DF6AC70E2225D96EDA6A000E94
:10184C00DA22DF6A222B030E22652FEF0CF031EF28
:10185C000CF01AEF0CF0CAEF0BF02B0E7B18D8B46F
:10186C003AEF0CF03CEF0CF057EF0CF02D0E7B1810
:10187C00D8B443EF0CF045EF0CF057EF0CF02A0EF8
:10188C007B18D8B44CEF0CF04EEF0CF057EF0CF07B
:10189C002F0E7B18D8A455EF0CF057EF0CF06AEF15
:1018AC000CF07BC079F0ED0E1F6E000E206E020E58
:1018BC00216E7A28226E7BC023F094EC15F0000187
:1018CC00FF6F7A2A85EF0CF0CB0E7A24D96EDA6A88
:1018DC00000EDA227BC0DFFF7A2AED0E1F6E000E9F
:1018EC00206E020E216E7AC022F07BC023F094ECA5
:1018FC0015F00001FF6F000E7B6ECAEF0BF0000EAF
:10190C007B6E000E0101206FF70E0C6E000E0D6E3B
:10191C007B0E0E6E000E0F6E7EEC10F00001FF6F52
:10192C00020E576E040E566EBA0EE82EFED7562EC9
:10193C00FCD7572EFAD700D07B50D8B4A8EF0CF0B8
:10194C00AAEF0CF08AEF0CF0230E7B18D8A4B1EFA1
:10195C000CF0B3EF0CF0EEEF0CF0ED0E0F6E000E82
:10196C00106E010E116E76EC13F00001FF6F820EFB
:10197C00566EDE0EE82EFED7562EFCD7ED0E186EE8
:10198C00000E196E110E1A6E100E1B6EBEEC13F0BB
:10199C000001FF6F000E7A6E000E0101216FCB0E5D
:1019AC002125D96EDA6A000EDA22DF6AC70E2125EC
:1019BC00D96EDA6A000EDA22DF6A212B030E21655A
:1019CC00EAEF0CF0ECEF0CF0D5EF0CF0C4EF0BF0F1
:1019DC003D0E7B18D8A4F5EF0CF0F7EF0CF031EFBF
:1019EC000DF0CB0E0F6E000E106EC70E116E000EAA
:1019FC00126EC30E136E000E146EBF0E156E000E1B
:101A0C00166E79C017F0BB0E186E000E196E19EC1D
:101A1C000AF0B60E406E000E416E240E426E100E91
:101A2C00436EBBC044F0BCC045F0BDC046F0BEC068
:101A3C0047F04AEC15F0ED0E1F6E000E206E030EF3
:101A4C00216E010E226EB60E236E000E246E70EC0B
:101A5C0015F00001FF6FC70E01012025D96EDA6A5F
:101A6C00000EDA227BC0DFFF202B7A2AED0E1F6ED0
:101A7C00000E206E020E216E7AC022F07BC023F085
:101A8C0094EC15F00001FF6F000E7B6E8AEF0CF0EA
:101A9C0007EF00F020BE55EF0DF058EF0DF0010EE2
:101AAC0059EF0DF0000E276E2750D8B460EF0DF0F3
:101ABC0062EF0DF066EF0DF01F6C201ED8B0202ADF
:101ACC0059BE6DEF0DF06BEF0DF073EF0DF0000ED6
:101ADC00246E010E236E77EF0DF058C023F059C021
:101AEC0024F086C025F087C026F02750D8B481EFAB
:101AFC000DF083EF0DF09AEF0DF02506D8A0260619
:101B0C002750D8A48CEF0DF08EEF0DF094EF0DF064
:101B1C00000E226E2B0E216E98EF0DF0000E226E31
:101B2C002D0E216E21C027F0000E296E1F0E286E7F
:101B3C00000E01011F6FD3EF0DF02806D8A0290667
:101B4C00000E2824D96E010E2920DA6E1FC002F077
:101B5C0020C003F0000E056E0A0E046E30EC12F07D
:101B6C0002C008F003C009F0D9EC15F00850300F92
:101B7C00DF6E2306D8A024062506D8A026061FC093
:101B8C0002F020C003F0000E056E0A0E046E72EC1B
:101B9C0011F002C01FF003C020F029BEDEEF0DF0E3
:101BAC00295008E12804D8A0DEEF0DF0E0EF0DF08D
:101BBC00F6EF0DF01F502010D8A4E7EF0DF0E9EF71
:101BCC000DF0A3EF0DF024BEF6EF0DF0245006E15E
:101BDC002304D8B0F4EF0DF0F6EF0DF0A3EF0DF0F9
:101BEC002750D8B4FCEF0DF0FEEF0DF009EF0EF01E
:101BFC002806D8A02906000E2824D96E010E29200B
:101C0C00DA6E27C0DFFF1DC012F01EC013F0000EED
:101C1C002824146E010E2920156E25C016F026C03E
:101C2C0017F043EC14F01200010E0A6E0250031070
:101C3C00D8B423EF0EF025EF0EF036EF0EF002C005
:101C4C00D9FF03C0DAFFDF30E832E832070B046E4D
:101C5C00070E046434EF0EF036EF0EF099EF0EF031
:101C6C00000E0A6EBAEF0EF002C0D9FF03C0DAFF05
:101C7C00DF30E832E832070B046E010E056E042AE1
:101C8C004AEF0EF0D8900536042E48EF0EF00550B2
:101C9C00FF0A066E02C0D9FF03C0DAFFDF50070B44
:101CAC00076E0750020DE30EF324D96E000EF420DC
:101CBC00DA6EDECF08F0DDCF09F008C0D9FF09C01D
:101CCC00DAFF0650DF16BAEF0EF002C0D9FF03C0E0
:101CDC00DAFFDF30E832E832070B046E010E056ED6
:101CEC00042A7BEF0EF0D8900536042E79EF0EF017
:101CFC0002C0D9FF03C0DAFFDF50070B066E065097
:101D0C00020DE30EF324D96E000EF420DA6EDECF52
:101D1C0007F0DDCF08F007C0D9FF08C0DAFF055087
:101D2C00DF12BAEF0EF002C0D9FF03C0DAFFDFBC3E
:101D3C00A2EF0EF0A5EF0EF0010EA6EF0EF0000EC6
:101D4C00046E056A0550000AD8B4AFEF0EF036EFFA
:101D5C000EF00450000AD8B43AEF0EF0010AD8B4D1
:101D6C006BEF0EF036EF0EF00A5012002CC0D9FFBC
:101D7C002DC0DAFFDECFF6FFDDCFF7FFF86A0800E3
:101D8C00F550250AD8A4CDEF0EF0CFEF0EF03CEFB6
:101D9C000FF02CC0D9FF2DC0DAFFDE2A000EDD2299
:101DAC00000E0001876F000E866F86C064F05868C5
:101DBC0059682CC0D9FF2DC0DAFFDECF36F0DDCF4D
:101DCC0037F036C0F6FF37C0F7FFF86A0800F55059
:101DDC00640AD8B4F4EF0EF0F6EF0EF005EF0FF046
:101DEC0036C0F6FF37C0F7FFF86A0800F550690AED
:101DFC00D8A403EF0FF005EF0FF033EF0FF02EC068
:101E0C00D9FF2FC0DAFFDFCF30F0020EDE26DFCF96
:101E1C0031F0000EDD2230C0D9FF31C0DAFFDECF49
:101E2C0032F0DDCF33F0010E3624306E000E372049
:101E3C00316E2CC0D9FF2DC0DAFF30C0DEFF31C0AF
:101E4C00DDFF2AC01DF02BC01EF032C01FF033C0C6
:101E5C0020F050EC0DF051EF0FF02CC0D9FF2DC03D
:101E6C00DAFFDE2A000EDD2251EF0FF02CC0D9FF75
:101E7C002DC0DAFFDECFF6FFDDCFF7FFF86A0800E2
:101E8C00F550026E036A2AC004F02BC005F00DEC6D
:101E9C0011F033EF0FF01200000E1C6E18501910D9
:101EAC00D8A45BEF0FF05DEF0FF061EF0FF0000EB9
:101EBC001D6EE6EF0FF018C00CF019C00DF0B7EC6A
:101ECC0014F01D6E010E18240C6E000E19200D6EF0
:101EDC00B7EC14F01D6E000E1C6E1C5018241A6EFC
:101EEC00000E19201B6E020E1A240C6E000E1B2005
:101EFC000D6EB7EC14F01C2A070E1C6488EF0FF063
:101F0C008AEF0FF073EF0FF01A0E1A6EF80EE82E20
:101F1C00FED71A2EFCD700D018C00FF019C010F045
:101F2C00380E116E76EC13F0070E1A6E7D0EE82E3D
:101F3C00FED71A2EFCD700F018C00FF019C010F005
:101F4C00380E116E76EC13F0320EE82EFED718C058
:101F5C000FF019C010F0380E116E76EC13F018C09B
:101F6C000FF019C010F0010E116E76EC13F018C0C2
:101F7C000FF019C010F0020E116E76EC13F018C0B1
:101F8C000FF019C010F0060E116E76EC13F018C09D
:101F9C000FF019C010F00C0E116E76EC13F018C087
:101FAC000FF019C010F0380E116E76EC13F018C04B
:101FBC000FF019C010F0800E116E76EC13F01D6E40
:101FCC001D501200010E0B6E02500310D8B4F1EF2D
:101FDC000FF0F3EF0FF004EF10F002C0D9FF03C0C5
:101FEC00DAFFDF30E832E832070B056E070E0564C6
:101FFC0002EF10F004EF10F067EF10F0000E0B6E14
:10200C007CEF10F002C0D9FF03C0DAFFDF30E832FA
:10201C00E832070B056E010E066E052A18EF10F05C
:10202C00D8900636052E16EF10F00650FF0A076EF4
:10203C0002C0D9FF03C0DAFFDF50070B086E08504F
:10204C00020DD90EF324D96E000EF420DA6EDECF19
:10205C0009F0DDCF0AF009C0D9FF0AC0DAFF07503A
:10206C00DF167CEF10F002C0D9FF03C0DAFFDF30BF
:10207C00E832E832070B056E010E066E052A49EFB1
:10208C0010F0D8900636052E47EF10F002C0D9FF9D
:10209C0003C0DAFFDF50070B076E0750020DD90E95
:1020AC00F324D96E000EF420DA6EDECF08F0DDCF0B
:1020BC0009F008C0D9FF09C0DAFF0650DF127CEF27
:1020CC0010F00450056E066A0650000AD8B471EF81
:1020DC0010F004EF10F00550000AD8B408EF10F01F
:1020EC00010AD8B439EF10F004EF10F00B501200C5
:1020FC00000E156E000E166E000E146E000E136E92
:10210C000C500D10D8B48DEF10F08FEF10F098EF3D
:10211C0010F00E500F10D8A496EF10F098EF10F0AE
:10212C009CEF10F0000E126E0BEF11F0000E156EFE
:10213C00000E146E14500C24026E000E0D20036E53
:10214C00000E046EE8EC0FF0142A030E1464B1EFC9
:10215C0010F0B3EF10F0A0EF10F015500C24026E3D
:10216C00000E0D20036E010E046EE8EC0FF00D0E48
:10217C00106EFC0EE82EFED7102EFCD7000E166E3D
:10218C0016500C24106E000E0D20116E040E10242F
:10219C00026E000E1120036E130E046E000E056EFF
:1021AC00D4EC11F0126E1304D8A4DFEF10F0E1EFB1
:1021BC0010F0F9EF10F01550040D010EF324106E11
:1021CC00100EF420116E16501026000E112210C0A5
:1021DC00F6FF11C0F7FFF86A0EC0D9FF0FC0DAFF87
:1021EC000800F5CFDFFF162A030E166400EF11F07E
:1021FC0002EF11F0C6EF10F0152A030E156409EF6B
:10220C0011F00BEF11F09EEF10F012501200045071
:10221C000510D8B414EF11F016EF11F01FEF11F0F8
:10222C0004500510D8A41DEF11F01FEF11F024EF8E
:10223C0011F00250B0EC16F071EF11F020EE0AF034
:10224C000450D9260550DA22DE50DE10D8B431EF16
:10225C0011F033EF11F04EEF11F020EE0AF00450B4
:10226C00D9260550DA2210EE03F00450E126055071
:10227C00E222DE50E65CE650800A0A6EDE50800AEE
:10228C000A58D8B04CEF11F04EEF11F071EF11F07D
:10229C0020EE03F00450D9260550DA22DECF06F0EA
:1022AC00DDCF07F004C0D9FF05C0DAFFDECF08F0A0
:1022BC00DDCF09F006500824D96E07500920DA6EDC
:1022CC0002C0DFFF20EE03F00450D9260550DA22BD
:1022DC00DE2A000EDD221200000E076E05BE7BEF1B
:1022EC0011F079EF11F081EF11F0046C051ED8B0EC
:1022FC00052A010E076E03BE88EF11F086EF11F070
:10230C008EEF11F0026C031ED8B0032A010E071ACF
:10231C00000E096E000E086E04500510D8B499EF2B
:10232C0011F09BEF11F0C3EF11F0010E066EA3EF4D
:10233C0011F0D89004360536062A05AEA8EF11F038
:10234C00AAEF11F09FEF11F0D8900836093604501F
:10235C00025C05500358D8A0B6EF11F0B8EF11F09D
:10236C00BDEF11F00450025E0550035A0880D8905E
:10237C0005320432062EAAEF11F00750D8B4C9EF7B
:10238C0011F0CBEF11F0CFEF11F0086C091ED8B0A3
:10239C00092A08C002F009C003F01200010E0B6EEE
:1023AC0002500310D8B4DDEF11F0DFEF11F0F9EFAC
:1023BC0011F004500510D8B4E6EF11F0E8EF11F06D
:1023CC00F9EF11F002C0D9FF03C0DAFFDF30E832B9
:1023DC00E832070B066E070E0664F7EF11F0F9EF03
:1023EC0011F0FDEF11F0000E0B6E2EEF12F002C08B
:1023FC00D9FF03C0DAFFDF30E832E832070B066E94
:10240C0002C0D9FF03C0DAFFDF50070B076E07507D
:10241C00020DCF0EF324D96E000EF420DA6EDECF4F
:10242C0008F0DDCF09F008C0D9FF09C0DAFFDF5092
:10243C000A6E062A24EF12F0D8900A32062E22EFEA
:10244C0012F00A50010B04C0D9FF05C0DAFFDF6E91
:10245C000B501200000E076E03BE39EF12F037EF6F
:10246C0012F03FEF12F0026C031ED8B0032A010EDB
:10247C00076E05BE46EF12F044EF12F04AEF12F071
:10248C00046C051ED8B0052A04500510D8B451EFC1
:10249C0012F053EF12F077EF12F0010E066E5BEFB5
:1024AC0012F0D89004360536062A05AE60EF12F00D
:1024BC0062EF12F057EF12F00450025C0550035813
:1024CC00D8A06BEF12F06DEF12F071EF12F0045018
:1024DC00025E0550035AD89005320432062E62EF84
:1024EC0012F00750D8B47DEF12F07FEF12F083EFAB
:1024FC0012F0026C031ED8B0032A02C002F003C013
:10250C0003F01200010E1E6E1B06BDEF12F018C078
:10251C000FF019C010F01B50800F116E76EC13F0F9
:10252C001E6EDAEF12F018C00FF019C010F01B502D
:10253C00C00F116E76EC13F01E6EDAEF12F018C0AD
:10254C000FF019C010F01B50940F116E76EC13F0B5
:10255C001E6EDAEF12F018C00FF019C010F01B50FD
:10256C00D40F116E76EC13F01E6EDAEF12F01A50D7
:10257C001C6E1D6A1D50000AD8B4C7EF12F0DAEFBA
:10258C0012F01C50010AD8B48DEF12F0030AD8B423
:10259C0099EF12F0010AD8B4A5EF12F0070AD8B4DB
:1025AC00B1EF12F0DAEF12F01E501200000E0A6EAC
:1025BC00000E0B6E000E0C6E000E0D6E065007100A
:1025CC0008100910D8B4EDEF12F0EFEF12F025EF70
:1025DC0013F0010E0E6EF9EF12F0D8900636073696
:1025EC00083609360E2A09AEFEEF12F000EF13F092
:1025FC00F3EF12F0D8900A360B360C360D36065027
:10260C00025C075003580850045809500558D8A0CC
:10261C0012EF13F014EF13F01DEF13F00650025EDF
:10262C000750035A0850045A0950055A0A80D8908A
:10263C0009320832073206320E2E00EF13F00AC0B0
:10264C0002F00BC003F00CC004F00DC005F012003A
:10265C00000E176E0F501010D8A437EF13F039EF8F
:10266C0013F03DEF13F0000E166E74EF13F00FC065
:10267C0002F010C003F0010E046EE8EC0FF0000E37
:10268C00176E17500F24126E000E1020136E020ED0
:10269C001224026E000E1320036E17C014F011C02A
:1026AC0015F0142A5CEF13F0D8901532142E5AEF53
:1026BC0013F01550010B046EE8EC0FF0172A070EFF
:1026CC0017646BEF13F06DEF13F047EF13F00FC0BF
:1026DC000CF010C00DF0F9EC15F0166E165012003F
:1026EC00000E176E0F501010D8A47FEF13F081EF6F
:1026FC0013F085EF13F0000E166EBCEF13F00FC045
:10270C0002F010C003F0000E046EE8EC0FF0000EA7
:10271C00176E17500F24126E000E1020136E020E3F
:10272C001224026E000E1320036E17C014F011C099
:10273C0015F0142AA4EF13F0D8901532142EA2EF32
:10274C0013F01550010B046EE8EC0FF0172A070E6E
:10275C001764B3EF13F0B5EF13F08FEF13F00FC056
:10276C000CF010C00DF0F9EC15F0166E16501200AE
:10277C00010E1C6E18501910D8A4C7EF13F0C9EF36
:10278C0013F0E8EF13F0000E1C6E01EF14F018C0FC
:10279C000FF019C010F01AC0F6FF1BC0F7FF000EA7
:1027AC00F86E0F0EF76403D00800F55005D0F6CF85
:1027BC00E9FFF7CFEAFFEF50116E2EEC13F01C6E11
:1027CC001A4A1B2A1AC0F6FF1BC0F7FF000EF86E40
:1027DC000F0EF76403D00800F55005D0F6CFE9FFD3
:1027EC00F7CFEAFFEF500009D8A4FFEF13F001EF89
:1027FC0014F0CDEF13F01C501200000E156E000EED
:10280C00166E10501110D8A40EEF14F010EF14F037
:10281C0014EF14F0000E146E41EF14F0000E156E50
:10282C00155010240C6E000E11200D6EB7EC14F028
:10283C00152A030E156425EF14F027EF14F016EF8C
:10284C0014F0000E166E16501024126E000E11208D
:10285C00136E040E1224026E000E1320036E1AEC7B
:10286C000EF0146E162A030E16643FEF14F041EFAF
:10287C0014F029EF14F01450120017BE48EF14F0A6
:10288C004AEF14F050EF14F016C01BF017C01CF0F8
:10289C0054EF14F0000E1C6E000E1B6E000E1A6E20
:1028AC00000E196E66EF14F0000E036E200E026E11
:1028BC0012C004F013C005F00DEC11F0194A1A2ADD
:1028CC001B50195C1A50800A186E1C50800A18583C
:1028DC00D8A073EF14F075EF14F05AEF14F014C085
:1028EC000BF015C00CF012C00DF013C00EF0B7ECCD
:1028FC0015F01200260EF66E2C0EF76E000EF86E0A
:10290C0000EECFF010EE30F00900F5CFEEFFE55001
:10291C00E150FAE1220EF66E2D0EF76E000EF86EF7
:10292C0000EE6EF010EE0BF00900F5CFEEFFE55067
:10293C00E150FAE101EE00F0200EEE6AE806FDE14E
:10294C0000EE80F04F0EEE6AE806FDE100EE58F066
:10295C00160EEE6AE806FDE17C907C920001B6EF63
:10296C000BF00C500D10D8B4BEEF14F0C0EF14F0F7
:10297C00D1EF14F00CC0D9FF0DC0DAFFDF30E83214
:10298C00E832070B0E6E070E0E64CFEF14F0D1EF8A
:10299C0014F0D5EF14F0000E0F6EEBEF14F00CC02A
:1029AC0002F00DC003F01AEC0EF00F6E0CC002F02A
:1029BC000DC003F00CC0D9FF0DC0DAFF000EDFBE56
:1029CC00010E046EE8EC0FF00F6E0F501200000EAB
:1029DC000A6E000E0B6E000E0C6E000E0D6E02A039
:1029EC00FAEF14F0FCEF14F004EF15F006500A2681
:1029FC0007500B2208500C2209500D22D890063695
:102A0C00073608360936D8900532043203320232C2
:102A1C000250031004100510D8A417EF15F019EF8D
:102A2C0015F0F5EF14F00AC002F00BC003F00CC067
:102A3C0004F00DC005F012003AC03EF03BC03FF070
:102A4C0036EF15F038C02AF039C02BF03E0E2C6E44
:102A5C00000E2D6E3CC02EF03DC02FF0BCEC0EF0E5
:102A6C003EC0F6FF3FC0F7FFF86A0800F5500009BA
:102A7C00D8A443EF15F045EF15F028EF15F0000E34
:102A8C00396E000E386E1200440E486E000E496E00
:102A9C0040C04AF041C04BF0000E4E6E000E4D6E21
:102AAC00000E556E000E546E4A0E386E000E396EC6
:102ABC0042C03AF043C03BF0480E3C6E000E3D6EF7
:102ACC0022EC15F04D504024D96E4E504120DA6E58
:102ADC00DF6A12001F502010D8A477EF15F079EFA1
:102AEC0015F07DEF15F0000E256E92EF15F01FC05E
:102AFC0018F020C019F021C01AF022C01BF088EC8D
:102B0C0012F01FC018F020C019F023C01AF024C016
:102B1C001BF0BEEC13F0256E255012001F50201038
:102B2C00D8A49BEF15F09DEF15F0A1EF15F0000E5A
:102B3C00246EB5EF15F01FC018F020C019F021C09D
:102B4C001AF022C01BF088EC12F0246E1FC00FF09C
:102B5C0020C010F023C011F02EEC13F0246E245082
:102B6C001200000E116E000E106EC8EF15F00FC0A3
:102B7C0002F0036A0DC004F00EC005F00DEC11F06C
:102B8C00104A112A10500B24D96E11500C20DA6EF9
:102B9C00DF500F6E0F50D8A4D6EF15F0D8EF15F00C
:102BAC00BDEF15F0120009BEE6EF15F0095006E175
:102BBC000804D8B0E4EF15F0E6EF15F0F4EF15F0DB
:102BCC0008C00AF009C00BF00A1E0B1E0A4A0B2A99
:102BDC000AC008F00BC009F0F8EF15F008C008F0B7
:102BEC0009C009F01200010E0C24026E000E0D201B
:102BFC00036E010E046EE8EC0FF000D000D000F074
:102C0C00010E0C24026E000E0D20036E000E046EDD
:102C1C00E8EC0FF00E6E0E501200800F810F820F39
:102C2C00830F840F890F8A0F8B0F8C0F8D0F920FD0
:102C3C00930F940F950F960F000801091119212974
:102C4C003139020A121A626A727A02500402F3CF04
:102C5C0006F0F4CF07F002500502F350072603509C
:102C6C000402F350072606C002F007C003F012005E
:102C7C00F70E106E000E116E03EC14F0ED0E186EC4
:102C8C00000E196E52EC0FF01200016EF290015012
:102C9C00D8A453EF16F055EF16F057EF16F057EF88
:102CAC0016F01200016EF2900150D8A460EF16F0ED
:102CBC0062EF16F064EF16F064EF16F01200016E7E
:102CCC00F2900150D8A46DEF16F06FEF16F071EF83
:102CDC0016F071EF16F01200016EF2900150D8A4AC
:102CEC007AEF16F07CEF16F07EEF16F07EEF16F012
:102CFC001200A1925B50B36E5AC0B2FF12009E90AC
:102D0C005D50CF6E5CC0CEFF1200F2945F50D76E58
:102D1C005EC0D6FF1200685A622A1A622A010101AB
:012D2C0001A5
:102D2E009E9266C0CCFF12003EEC16F012009E96EC
:102D3E001200A1961200F0921200F0901200F29280
:102D4E0012009D981200A19012009E9412009E9C5B
:082D5E00120012001200120025
:020000040020DA
:08000000FFFFFFFFFFFFFFFF00
:020000040030CA
:0E000000FF020912FF8181FF0FC00FE00F40C9
:00000001FF
